:1000000058C0000074C0000072C0000070C0000042
:100010006EC000006CC000006AC0000068C0000034
:1000200066C0000064C0000062C0000060C0000044
:100030005EC000005CC000005AC0000058C0000054
:100040003EC5000054C0000052C0000050C0000077
:100050004EC000004CC000004AC0000048C0000074
:1000600046C0000044C0000042C0000040C0000084
:100070003EC000003CC000003AC0000038C0000094
:1000800036C0000034C0000032C0000030C00000A4
:100090002EC0000005A84CCDB2D44EB93836A90206
:1000A0000C50B9918688083CA6AAAA2ABE00000076
:1000B000803F11241FBECFEFD0E1DEBFCDBF11E0E6
:1000C000A0E0B1E0E4EBF6E100E00BBF02C0079076
:1000D0000D92A432B107D9F721E0A4E2B1E001C04A
:1000E0001D92A138B207E1F70FD40C94580B88CFBA
:1000F0008F929F92AF92BF92CF92DF92EF92FF9238
:100100004B015C0169017A0120E030E0A901C701DF
:10011000B601ADD5811103C080E090E002C081E05E
:1001200090E0019731F4A5019401C701B60129D7E8
:1001300005C0A5019401C701B60123D7FF90EF9038
:10014000DF90CF90BF90AF909F908F9008954F9287
:100150005F926F927F928F929F92AF92BF92CF9257
:10016000DF92EF92FF92CF93DF93CDB7DEB7289760
:100170000FB6F894DEBF0FBECDBF69837A838B8341
:100180009C832D833E834F835887C0904401D09039
:100190004501E0904601F090470120EB3AE549E93E
:1001A0005CE3C701B601EDD69B01AC01C701B60106
:1001B000E8D62B013C016091040170910501072EE6
:1001C000000C880B990BF0D54B015C019B01AC0135
:1001D000C301B20153D52B013C01A501940160E09C
:1001E00070E48CE196E44AD54B015C0129813A81A7
:1001F0004B815C81C6D69B01AC01C301B201D3D453
:100200002B013C012D813E814F815885C501B401F0
:10021000B8D69B01AC01C301B201C4D460934001C4
:1002200070934101809342019093430120915C01BE
:1002300030915D0140915E0150915F01B4D44B015A
:100240005C0160935C0170935D0180935E0190930B
:100250005F0120E030E048E452E4C701B6018DD6EA
:1002600018166CF480E090E0A8E4B2E480934401B6
:1002700090934501A0934601B093470113C060914C
:100280000001709101018091020190910301A5018B
:1002900094012EDF609344017093450180934601E1
:1002A000909347016091440170914501809146010E
:1002B0009091470128960FB6F894DEBF0FBECDBFD0
:1002C000DF91CF91FF90EF90DF90CF90BF90AF90F4
:1002D0009F908F907F906F905F904F9008954F9276
:1002E0005F926F927F928F929F92AF92BF92CF92C6
:1002F000DF92EF92FF92CF93DF93CDB7DEB72C97CB
:100300000FB6F894DEBF0FBECDBF6D837E838F83A3
:100310009887C0904401D0904501E0904601F0904C
:10032000470120E030E0A901C701B601A0D488232D
:1003300051F020E030E0A9016D817E818F819885A8
:1003400096D4811111C0109234011092350110928F
:10035000360110923701109224011092250110925B
:10036000260110922701ADC020E030E943E355E4B7
:10037000C701B60106D64B015C019B01AC0167E6E3
:1003800076EA87E697EC7AD44090380150903901AC
:1003900060903A0170903B01A3019201F2D569830C
:1003A0007A838B839C83A501940160E070E080EFE9
:1003B00095E464D48090280190902901A0902A01AE
:1003C000B0902B01A5019401DCD59B01AC016981A2
:1003D0007A818B819C81E7D369837A838B839C8329
:1003E00023E338E044EC50E46D817E818F81988571
:1003F000C8D59B01AC0169817A818B819C81D3D363
:1004000060933401709335018093360190933701E6
:100410006091040170910501072E000C880B990B67
:10042000C3D469837A838B839C839B01AC01C7010E
:10043000B601A7D569877A878B879C879B01AC011A
:1004400060E070E080EF95E419D4A7019601AAD38B
:100450009B01AC01C301B20194D56B017C012985DC
:100460003A854B855C8560E070E08AEF96EC06D4B7
:100470009B01AC01C501B40184D59B01AC01C7014E
:10048000B60191D34B015C0129813A814B815C819A
:1004900060E070E08AE796E4F1D39B01AC016D81E6
:1004A0007E818F8198856DD59B01AC01C501B4011A
:1004B0007AD3609324017093250180932601909351
:1004C000270120913401309135014091360150913E
:1004D0003701609158017091590180915A019091B2
:1004E0005B0161D32B013C0160935801709359016A
:1004F00080935A0190935B01209124013091250152
:10050000409126015091270160915401709155014D
:10051000809156019091570146D34B015C01609345
:100520005401709355018093560190935701C090E8
:100530000001D0900101E0900201F0900301A301BD
:100540009201C701B601D4DD60933801709339017F
:1005500080933A0190933B01A5019401C701B60134
:10056000C7DD609328017093290180932A0190933D
:100570002B012C960FB6F894DEBF0FBECDBFDF91D6
:10058000CF91FF90EF90DF90CF90BF90AF909F9072
:100590008F907F906F905F904F9008954F925F92F1
:1005A0006F927F928F929F92AF92BF92CF92DF9283
:1005B000EF92FF92CF93DF93CDB7DEB728970FB6B8
:1005C000F894DEBF0FBECDBF40903C0150903D017E
:1005D00060903E0170903F01C301B2014CD369832A
:1005E0007A838B839C838091440190914501A091F3
:1005F0004601B09147018D839E83AF83B8879C01EC
:10060000AD0169817A818B819C81BBD46B017C01B6
:10061000C301B20119D52B013C01809028019090B3
:100620002901A0902A01B0902B01A5019401A9D421
:100630009B01AC01C701B601B6D26B017C0160938E
:100640003001709331018093320190933301A30103
:1006500092016D817E818F81988593D42B013C011D
:10066000A501940169817A818B819C818AD49B0147
:10067000AC01C301B20197D24B015C0160932C0124
:1006800070932D0180932E0190932F01409038019B
:100690005090390160903A0170903B0120915001D7
:1006A000309151014091520150915301C701B6015F
:1006B0007AD26B017C016093500170935101809359
:1006C00052019093530120914C0130914D01409182
:1006D0004E0150914F01C501B40165D24B015C013F
:1006E00060934C0170934D0180934E0190934F01A4
:1006F000209148013091490140914A0150914B01AC
:10070000C301B20150D269837A838B839C83609347
:1007100048017093490180934A0190934B014090A6
:100720000001509001016090020170900301A70147
:100730009601C301B201DCDC609371017093720118
:100740008093730190937401A5019401C301B201D8
:10075000CFDC60937501709376018093770190935D
:10076000780129813A814B815C81C301B201C0DCEF
:1007700060933C0170933D0180933E0190933F0153
:1007800028960FB6F894DEBF0FBECDBFDF91CF9194
:10079000FF90EF90DF90CF90BF90AF909F908F90A1
:1007A0007F906F905F904F9008956091710170916C
:1007B00072018091730190917401089560917501A7
:1007C0007091760180917701909178010895609100
:1007D0003C0170913D0180913E0190913F0108954F
:1007E00088B1886088B982E08A95F1F700C088B145
:1007F000877F88B90895CF93DF932FE788E391E04F
:10080000215080409040E1F700C0000080E388B9AB
:10081000E7DF2AE62A95F1F700C0D0E2D8B9E0DF99
:10082000C0E8C8B9DDDF8AE68A95F1F700C0D8B91B
:10083000D7DFC8B9D5DF9AE69A95F1F700C018B8A6
:10084000CFDF80EF88B9CCDF2AE62A95F1F700C028
:1008500018B8C6DF80E188B9C3DF8FE99FE0019750
:10086000F1F700C0000018B8BBDF80E688B9B8DF38
:100870008FE19EE40197F1F700C00000DF91CF9176
:100880000895CF93C82F2AE62A95F1F700C0807FFC
:10089000846088B9A5DF20E1C29FC0011124846073
:1008A00088B99EDFCF910895CF938736A0F4C82FE3
:1008B000C0682AE62A95F1F700C0807F806888B971
:1008C0008FDF20E1C29FC001112488B989DF8AE649
:1008D0008A95F1F700C0CF910895CF93DF93EC0193
:1008E00002C02196CEDF88818111FBCFDF91CF91AD
:1008F00008959091C00095FFFCCF8093C6000895A5
:100900008CEF87B918B80895CF93DF93CDB7DEB7D2
:10091000E2970FB6F894DEBF0FBECDBFF1DF29D14D
:100920006ADF2FD183E390E032D178948091700117
:10093000813011F41092700180916E01813009F0C4
:1009400084C0209168013091690140916A01509101
:100950006B0160910A0170910B0180910C019091E3
:100960000D01F5DB6093640170936501809366016E
:1009700090936701609106017091070180910801D1
:1009800090910901ACDC0ADE10DF60937D01709369
:100990007E0180937F019093800110DF6093790145
:1009A00070937A0180937B0190937C0110DF6093B8
:1009B0006001709361018093620190936301609183
:1009C000790170917A0180917B0190917C01BED177
:1009D0007F936F9360917D0170917E0180917F0183
:1009E00090918001B3D17F936F938EE091E09F93BC
:1009F0008F938E010F5F1F4F1F930F937ED380E065
:100A000053DFC8016ADF20EE3EE245E652E4609122
:100A10006001709161018091620190916301B1D296
:100A200095D11F926F938AE191E09F938F931F93CB
:100A30000F9363D388E238DFC8014FDF10926E0155
:100A40000FB6F894DEBF0FBECDBF80916F0181302D
:100A500009F06CCF60917D0170917E0180917F01E2
:100A60009091800173D1E62E6091790170917A01A5
:100A700080917B0190917C0169D1F62E609160019B
:100A80007091610180916201909163015FD1062FA5
:100A90001E2D1F2516278AEA18272BDF8E2D29DF0A
:100AA00080E027DF8F2D25DF80E023DF802F21DF0F
:100AB00080E01FDF812F1DDF10926F0137CF1F9263
:100AC0000F920FB60F9211242F933F934F935F9382
:100AD0006F937F938F939F93AF93BF9340916C01DC
:100AE00050916D014F5F5F4F50936D0140936C01CA
:100AF00081E0809370019A01ADECBCECEFD2969549
:100B0000879596958795969587959C01220F331F1B
:100B1000880F991F880F991F880F991F820F931FA5
:100B20004817590719F481E080936F019A013695AF
:100B30002795ABE7B4E1D2D29695879562E3689F9B
:100B40009001699F300D11244217530719F481E079
:100B500080936E01BF91AF919F918F917F916F9123
:100B60005F914F913F912F910F900FBE0F901F906B
:100B700018958DE084BD8DE487BD82E080936E0082
:100B8000089582E08093690081E08DBB0895909381
:100B9000C5008093C4008EE08093C20088E98093F2
:100BA000C10008955058BB27AA270ED09BC164D11D
:100BB00030F069D120F031F49F3F11F41EF459C197
:100BC0000EF4E095E7FB4FC1E92FAED180F3BA17E1
:100BD000620773078407950718F071F49EF5C6C184
:100BE0000EF4E0950B2EBA2FA02D0B01B901900148
:100BF0000C01CA01A0011124FF27591B99F0593F8C
:100C000050F4503E68F11A16F040A22F232F342FD3
:100C10004427585FF3CF469537952795A795F04021
:100C20005395C9F77EF41F16BA0B620B730B840B36
:100C3000BAF09150A1F0FF0FBB1F661F771F881FEE
:100C4000C2F70EC0BA0F621F731F841F48F4879546
:100C500077956795B795F7959E3F08F0B3CF939535
:100C6000880F08F09927EE0F979587950895D7D0AC
:100C700008F481E008950FD1E39545C10CD032C14D
:100C800002D140F0F9D030F021F45F3F19F0EBC011
:100C900051116DC1EEC048D198F39923C9F3552382
:100CA000B1F3951B550BBB27AA276217730784075F
:100CB00038F09F5F5F4F220F331F441FAA1FA9F315
:100CC00033D00E2E3AF0E0E830D091505040E69507
:100CD000001CCAF729D0FE2F27D0660F771F881F68
:100CE000BB1F261737074807AB07B0E809F0BB0B57
:100CF000802DBF01FF2793585F4F2AF09E3F51057B
:100D000068F0B1C034C15F3FECF3983EDCF38695E8
:100D100077956795B795F7959F5FC9F7880F911DF0
:100D20009695879597F90895E1E0660F771F881FDC
:100D3000BB1F621773078407BA0720F0621B730B8F
:100D4000840BBA0BEE1F88F7E0950895F5D088F074
:100D50009F5790F0B92F9927B751A0F0D1F0660FA7
:100D6000771F881F991F1AF0BA95C9F712C0B130C2
:100D700081F0FCD0B1E00895F9C0672F782F882763
:100D8000B85F39F0B93FCCF3869577956795B39501
:100D9000D9F73EF490958095709561957F4F8F4F70
:100DA0009F4F0895E89409C097FB3EF49095809575
:100DB000709561957F4F8F4F9F4F9923A9F0F92F21
:100DC00096E9BB279395F695879577956795B7959F
:100DD000F111F8CFFAF4BB0F11F460FF1BC06F5F85
:100DE0007F4F8F4F9F4F16C0882311F096E911C097
:100DF000772321F09EE8872F762F05C0662371F0B8
:100E000096E8862F70E060E02AF09A95660F771FCB
:100E1000881FDAF7880F9695879597F90895990FA7
:100E20000008550FAA0BE0E8FEEF16161706E807B4
:100E3000F907C0F012161306E407F50798F0621BD5
:100E4000730B840B950B39F40A2661F0232B242BAA
:100E5000252B21F408950A2609F4A140A6958FEFC9
:100E6000811D811D089597F99F6780E870E060E01B
:100E700008959FEF80EC089500240A941616170633
:100E800018060906089500240A941216130614067B
:100E900005060895EECF50D0E8F3E894E0E0BB27D4
:100EA0009F57F0F02AED3FE049EC06C0EE0FBB0F74
:100EB000661F771F881F28F0B23A620773078407FE
:100EC00028F0B25A620B730B840BE3959A9572F774
:100ED000803830F49A95BB0F661F771F881FD2F7B2
:100EE0009048BAC0092E0394000C11F4882352F0E4
:100EF000BB0F40F4BF2B11F460FF04C06F5F7F4F46
:100F00008F4F9F4F0895EF93E0FF06C0A2EA2AEDAE
:100F10003FE049EC5FEB58DEE5DF0F90039401FC06
:100F20009058E4E9F0E0A4C057FD9058440F551FD5
:100F300059F05F3F71F04795880F97FB991F61F05B
:100F40009F3F79F087950895121613061406551FD2
:100F5000F2CF4695F1DF08C0161617061806991F3E
:100F6000F1CF86957105610508940895E894BB2733
:100F700066277727CB0197F9089551DF08F48FEFA3
:100F800008950BD0AFCF78DF28F07DDF18F09523E0
:100F900009F069CF6ECF1124EACFC6DFA0F3959F89
:100FA000D1F3950F50E0551F629FF001729FBB2750
:100FB000F00DB11D639FAA27F00DB11DAA1F649FFC
:100FC0006627B00DA11D661F829F2227B00DA11DAF
:100FD000621F739FB00DA11D621F839FA00D611D35
:100FE000221F749F3327A00D611D231F849F600D56
:100FF000211D822F762F6A2F11249F5750408AF08F
:10100000E1F088234AF0EE0FFF1FBB1F661F771F1A
:10101000881F91505040A9F79E3F510570F023CF93
:10102000A6CF5F3FECF3983EDCF386957795679506
:10103000B795F795E7959F5FC1F7FE2B880F911D38
:101040009695879597F908959F9325DF0F9007FC54
:10105000EE5F59CF9F3F31F0915020F487957795FF
:101060006795B795880F911D9695879597F908957F
:101070009F938F937F936F93FF93EF939B01AC01AB
:1010800080DFEF91FF9105D02F913F914F915F91BC
:1010900078CFDF93CF931F930F93FF92EF92DF925E
:1010A0007B018C01689405C0DA2EEF0176DFFE012A
:1010B000E894A5912591359145915591AEF3EF01B5
:1010C00083DDFE019701A801DA9479F7DF90EF90B4
:1010D000FF900F911F91CF91DF910895A29FB001D2
:1010E000B39FC001A39F700D811D1124911DB29F5C
:1010F000700D811D1124911D08950F931F93CF939F
:10110000DF93CDB7DEB72E970FB6F894DEBF0FBED4
:10111000CDBF0D891E8986E08C831A8309838FEFEA
:101120009FE79E838D83AE01475E5F4F6F89788D09
:10113000CE01019610D0EF81F885E00FF11F1082EB
:101140002E960FB6F894DEBF0FBECDBFDF91CF91C4
:101150001F910F9108952F923F924F925F926F923D
:101160007F928F929F92AF92BF92CF92DF92EF9237
:10117000FF920F931F93CF93DF93CDB7DEB72B97DB
:101180000FB6F894DEBF0FBECDBF6C017B018A01A4
:10119000FC0117821682838181FFBFC1CE010196B7
:1011A0003C01F6019381F70193FD859193FF8191B5
:1011B0007F01882309F4ADC1853239F493FD85910F
:1011C00093FF81917F01853221F4B60190E0D6D161
:1011D000E8CF912C212C312CFFE1F315D8F08B3284
:1011E00079F038F4803279F08332A1F4232D206134
:1011F0001DC08D3261F0803369F4232D216016C04B
:10120000832D8260382EE32DE4603E2E2AC0F32D1C
:10121000F8601DC037FC2DC020ED280F2A3040F0AB
:101220008E32B9F436FC75C1232D2064322E19C0DC
:1012300036FE06C08AE0989E200D1124922E11C021
:10124000EAE02E9E200D1124222EF32DF0623F2E77
:1012500008C08C3621F4832D8068382E02C0883671
:1012600041F4F70193FD859193FF81917F018111F5
:10127000B3CF982F9F7D9554933028F40C5F1F4F68
:101280009FE399830DC0833631F0833771F0833546
:1012900009F055C020C0F801808189830E5F1F4F7F
:1012A00088248394912C530112C02801F2E04F0E40
:1012B000511CF801A080B18036FE03C0692D70E09A
:1012C00002C06FEF7FEFC5014ED14C018201F32DBB
:1012D000FF773F2E15C0280122E0420E511CF80175
:1012E000A080B18036FE03C0692D70E002C06FEFB0
:1012F0007FEFC5012DD14C01F32DF0683F2E820107
:1013000033FC19C0822D90E088169906A0F4B6012E
:1013100080E290E033D12A94F5CFF50137FC859136
:1013200037FE81915F01B60190E028D121102A9407
:1013300021E0821A91088114910479F7E1C0843682
:1013400011F0893639F5F80137FE07C060817181E7
:10135000828193810C5F1F4F08C060817181072ECD
:10136000000C880B990B0E5F1F4FF32DFF763F2E5D
:1013700097FF09C090958095709561957F4F8F4F2D
:101380009F4FF0683F2E2AE030E0A30133D1882E32
:10139000861844C0853731F4232D2F7EB22E2AE0E3
:1013A00030E025C0932D997FB92E8F36C1F018F407
:1013B000883579F0AEC0803719F0883721F0A9C0A0
:1013C000E92FE061BE2EB4FE0DC0FB2DF460BF2EF0
:1013D00009C034FE0AC0292F2660B22E06C028E0BC
:1013E00030E005C020E130E002C020E132E0F80149
:1013F000B7FE07C060817181828193810C5F1F4FAE
:1014000006C06081718180E090E00E5F1F4FA301F4
:10141000F1D0882E8618FB2DFF773F2E36FE0DC0AB
:10142000232D2E7FA22E891458F434FE0BC032FCDB
:1014300009C0832D8E7EA82E05C0B82CA32C03C016
:10144000B82C01C0B92CA4FE0FC0FE01E80DF11D9F
:101450008081803321F49A2D997EA92E09C0A2FEA5
:1014600006C0B394B39404C08A2D867809F0B3946F
:10147000A3FC10C0A0FE06C0B21480F4280C922C6D
:101480009B180DC0B21458F4B60180E290E076D0FB
:10149000B394F8CFB21418F42B1802C0982C212C56
:1014A000A4FE0FC0B60180E390E068D0A2FE16C093
:1014B000A1FC03C088E790E002C088E590E0B60197
:1014C0000CC08A2D867851F0A1FE02C08BE201C0CB
:1014D00080E2A7FC8DE2B60190E050D0891430F490
:1014E000B60180E390E04AD09A94F8CF8A94F30151
:1014F000E80DF11D8081B60190E040D08110F6CF5B
:10150000222009F44ECEB60180E290E037D02A9432
:10151000F7CFF6018681978102C08FEF9FEF2B9660
:101520000FB6F894DEBF0FBECDBFDF91CF911F91F4
:101530000F91FF90EF90DF90CF90BF90AF909F9072
:101540008F907F906F905F904F903F902F90089575
:10155000FC010590615070400110D8F7809590957E
:101560008E0F9F1F0895FC01615070400190011083
:10157000D8F7809590958E0F9F1F08950F931F9316
:10158000CF93DF93FB01238121FD03C08FEF9FEFFA
:101590002CC022FF16C04681578124813581421715
:1015A000530744F4A081B1819D012F5F3F4F3183E8
:1015B00020838C93268137812F5F3F4F378326838B
:1015C00014C08B01EC01FB010084F185E02D09952D
:1015D000892BE1F6D80116968D919C91179701966B
:1015E00017969C938E931697CE01DF91CF911F9102
:1015F0000F910895FA01AA27283051F1203181F185
:10160000E8946F936E7F6E5F7F4F8F4F9F4FAF4F0A
:10161000B1E03ED0B4E03CD0670F781F891F9A1F1D
:10162000A11D680F791F8A1F911DA11D6A0F711DD1
:10163000811D911DA11D20D009F468943F912AE0DD
:10164000269F11243019305D3193DEF6CF010895C5
:10165000462F4770405D4193B3E00FD0C9F7F6CFF6
:10166000462F4F70405D4A3318F0495D31FD4052BE
:10167000419302D0A9F7EACFB4E0A6959795879554
:1016800077956795BA95C9F7009761057105089533
:101690009B01AC010A2E06945795479537952795DF
:1016A000BA95C9F7620F731F841F951FA01D089577
:0416B000F894FFCFDC
:1016B4000000003F25060AD7233C0000003F706F5E
:1016C400733A2534642C2534640070737A693A259E
:0416D400336400007B
:00000001FF
