S00C0000466564322E73726563D7
S113000058C0000074C0000072C0000070C000003E
S11300106EC000006CC000006AC0000068C0000030
S113002066C0000064C0000062C0000060C0000040
S11300305EC000005CC000005AC0000058C0000050
S11300409FC4000054C0000052C0000050C0000013
S11300504EC000004CC000004AC0000048C0000070
S113006046C0000044C0000042C0000040C0000080
S11300703EC000003CC000003AC0000038C0000090
S113008036C0000034C0000032C0000030C00000A0
S11300902EC0000005A84CCDB2D44EB93836A90202
S11300A00C50B9918688083CA6AAAA2ABE00000072
S11300B0803F11241FBECFEFD0E1DEBFCDBF11E0E2
S11300C0A0E0B1E0E4E9F5E100E00BBF02C0079075
S11300D00D92AA31B107D9F721E0AAE1B1E001C03C
S11300E01D92A336B207E1F79DD30C94C80A88CFBA
S11300F00F93013021F060E070E0CB0103C060E0B9
S113010070E0CB010F9108954F925F926F927F92AE
S11301108F929F92AF92BF92CF92DF92EF92FF9213
S11301200F931F93CF93DF9300D000D0CDB7DEB7EA
S11301306B017C0129833A834B835C83209100010A
S113014030910101409102015091030168E97AE381
S113015080E090E007D749015A010F2EF4E64F2EB4
S1130160512C612C712CF02DC701B601A301920111
S1130170F9D6CA01B901A5019401E5D66B017C0148
S113018069817A818B819C81A3019201EBD6CA019A
S1130190B901A5019401D7D6A7019601261B370BF7
S11301A0480B590BCA01B9010091490110914A0148
S11301B020914B0130914C01A9019801260F371F62
S11301C0481F591F2093490130934A0140934B0122
S11301D050934C01009148010F5F0093480188DF60
S11301E060934D0170934E0180934F0190935001A1
S11301F00F900F900F900F90DF91CF911F910F915F
S1130200FF90EF90DF90CF90BF90AF909F908F9032
S11302107F906F905F904F9008954F925F926F928E
S11302207F928F929F92AF92BF92CF92DF92EF9282
S1130230FF920F931F93CF93DF93CDB7DEB76097F1
S11302400FB6F894DEBF0FBECDBF4B015C014090EA
S11302504D0150904E0160904F0170905001A9E300
S1130260BBE0A3019201AFD66B017C01F8D49B01E2
S1130270AC0160E070E080E090E85DD469837A834B
S11302808B839C838091400190914101A091420114
S1130290B091430189879A87AB87BC87BC01CD01A4
S11302A0DED429813A814B815C81A0D56D837E8324
S11302B08F83988760E07FE88FEF9FEFA701960117
S11302C051D68091360190913701A0913801B091B7
S11302D0390189839A83AB83BC83BC01CD0133D6B6
S11302E0BED42D813E814F815885BED36B017C01E4
S11302F0D501C401880F991FAA1FBB1F880F991F1E
S1130300AA1FBB1FBC01CD01680D791D8A1D9B1D51
S1130310A6D4A7019601A8D376D46B017C01809161
S1130320000190910101A0910201B09103018D831C
S11303309E83AF83B887A3019201BC01CD0103D68C
S11303406D877E878F87988B60E07FE88FEF9FEFC4
S11303502D853E854F85588905D6CA01B901641992
S113036075098609970929853A854B855C85EBD5FE
S11303702B013C0160E070EC8FEF9FEF2D853E85F3
S11303804F855889EFD5CA01B90129813A814B813A
S11303905C81D9D5460E571E681E791E60E878E345
S11303A080E090E02D813E814F815885DBD5CA01E4
S11303B0B901A5019401C7D5460E571E681E791EC2
S11303C080913C0190913D01A0913E01B0913F018B
S11303D08C0D9D1DAE1DBF1D00913A0110913B0176
S11303E00F5F1F4F10933B0100933A019C01AD0135
S11303F0332744275527C701B6017ADE60934001AD
S1130400709341018093420190934301C0923C0157
S1130410D0923D01E0923E01F0923F0160913201A1
S1130420709133018091340190913501730162011F
S1130430C60ED71EE81EF91EC0921A01D0921B01E7
S1130440E0921C01F0921D010091300110913101E4
S11304500F5F1F4F1093310100933001A7019601E4
S113046033274427552744DE6093360170933701C0
S113047080933801909339014092320150923301B4
S1130480609234017092350160960FB6F894DEBF25
S11304900FBECDBFDF91CF911F910F91FF90EF90D1
S11304A0DF90CF90BF90AF909F908F907F906F9090
S11304B05F904F9008958F929F92AF92BF92CF9288
S11304C0DF92EF92FF920F931F936091440170911A
S11304D045018091460190914701C1D36B017C0194
S11304E027D34B015C0160914D0170914E018091C5
S11304F04F0190915001B3D3A501940177D44B01DE
S11305005C01C701B601D5D46B017C016091360151
S1130510709137018091380190913901A0D3A701DE
S1130520960164D49B01AC01C501B4019DD26BD387
S11305306B017C0180912C0190912D01A0912E01E1
S1130540B0912F018C0D9D1DAE1DBF1D00912A0180
S113055010912B010F5F1F4F10932B0100932A0161
S11305609C01AD01332744275527C701B601C0DDDF
S1130570C0922C01D0922D01E0922E01F0922F0115
S11305801F910F91FF90EF90DF90CF90BF90AF90AD
S11305909F908F9008958F929F92AF92BF92CF9227
S11305A0DF92EF92FF920F931F9360914401709139
S11305B04501809146019091470151D36B017C0123
S11305C078D44B015C0160914D0170914E01809192
S11305D04F019091500143D3A501940107D44B01DD
S11305E05C01C701B601A4D26B017C0160913601A4
S11305F070913701809138019091390130D3A7016E
S11306009601F4D39B01AC01C501B4012DD2FBD2F8
S11306106B017C018091260190912701A091280112
S1130620B09129018C0D9D1DAE1DBF1D00912401AB
S1130630109125010F5F1F4F109325010093240192
S11306409C01AD01332744275527C701B60150DD6E
S1130650C0922601D0922701E0922801F09229014C
S11306601F910F91FF90EF90DF90CF90BF90AF90CC
S11306709F908F900895CF92DF92EF92FF920F9305
S11306801F936091400170914101809142019091CA
S11306904301009120011091210120912201309108
S11306A023016B017C01C00ED11EE21EF31EC09219
S11306B02001D0922101E0922201F09223010091C5
S11306C01E0110911F010F5F1F4F10931F01009314
S11306D01E01A701960133274427552709DD60939E
S11306E044017093450180934601909347011F9103
S11306F00F91FF90EF90DF90CF90089588B18860BC
S113070088B982E08A95F1F700C088B1877F88B9FB
S11307100895CF93DF932FE788E391E02150804041
S11307209040E1F700C0000080E388B9E7DF2AE6E3
S11307302A95F1F700C0D0E2D8B9E0DFC0E8C8B923
S1130740DDDF8AE68A95F1F700C0D8B9D7DFC8B9EA
S1130750D5DF9AE69A95F1F700C018B8CFDF80EF9D
S113076088B9CCDF2AE62A95F1F700C018B8C6DFAD
S113077080E188B9C3DF8FE99FE00197F1F700C0FA
S1130780000018B8BBDF80E688B9B8DF8FE19EE4CB
S11307900197F1F700C00000DF91CF910895CF9346
S11307A0C82F2AE62A95F1F700C0807F846088B9B3
S11307B0A5DF20E1C29FC0011124846088B99EDFB7
S11307C0CF910895CF938736A0F4C82FC0682AE646
S11307D02A95F1F700C0807F806888B98FDF20E117
S11307E0C29FC001112488B989DF8AE68A95F1F78E
S11307F000C0CF910895CF93DF93EC0102C02196FE
S1130800CEDF88818111FBCFDF91CF910895909144
S1130810C00095FFFCCF8093C60008958CEF87B984
S113082018B80895CF93DF93CDB7DEB7E2970FB62C
S1130830F894DEBF0FBECDBFF1DFFCD06ADF02D17A
S113084083E390E005D1789480915E01813011F4C6
S113085010925E0180915C01813009F065C02091A5
S1130860590130E040E050E06091040170E080E024
S113087090E04ADC709354016093530160915501F8
S1130880709156018091570190915801BCD1C5DCFB
S113089012DE7093600160935F017DDE70936201EC
S11308A060936101E8DE709352016093510180917D
S11308B061019091620199279F938F9380915301D5
S11308C09091540199279F938F9385E091E09F9392
S11308D08F938E010F5F1F4F1F930F937ED380E082
S11308E071DFC80188DF609151017091520180E08D
S11308F090E0B5D120EE3EE245E652E477D283D1D2
S11309001F926F9381E191E09F938F931F930F93B5
S113091064D388E257DFC8016EDF10925C010FB622
S1130920F894DEBF0FBECDBF80915D01813009F028
S11309308BCFB0905301C0905401D0906101E090EE
S11309406201F0905101009152018B2D8C258D256F
S11309508E258F2580271AEA18278AEA58DF8B2DDF
S113096056DF8C2D54DF8D2D52DF8E2D50DF8F2DD1
S11309704EDF802F4CDF812F4ADF10925D0164CF60
S11309801F920F920FB60F9211242F933F934F9300
S11309905F936F937F938F939F93AF93BF93409194
S11309A05A0150915B014F5F5F4F50935B0140933D
S11309B05A0181E080935E019A01ADECBCECF4D263
S11309C09695879596958795969587959C01220F80
S11309D0331F880F991F880F991F880F991F820F43
S11309E0931F4817590719F481E080935D019A0118
S11309F036952795ABE7B4E1D7D29695879562E310
S1130A00689F9001699F300D11244217530719F410
S1130A1081E080935C01BF91AF919F918F917F9111
S1130A206F915F914F913F912F910F900FBE0F9057
S1130A301F9018958DE084BD8DE487BD82E080937E
S1130A406E00089582E08093690081E08DBB089573
S1130A509093C5008093C4008EE08093C20088E91F
S1130A608093C10008955058BB27AA270ED073C1A4
S1130A703CD130F041D120F031F49F3F11F41EF409
S1130A8031C10EF4E095E7FB27C1E92F86D180F34D
S1130A90BA17620773078407950718F071F49EF577
S1130AA09EC10EF4E0950B2EBA2FA02D0B01B901B7
S1130AB090010C01CA01A0011124FF27591B99F0D0
S1130AC0593F50F4503E68F11A16F040A22F232FDC
S1130AD0342F4427585FF3CF469537952795A7952C
S1130AE0F0405395C9F77EF41F16BA0B620B730BD3
S1130AF0840BBAF09150A1F0FF0FBB1F661F771F44
S1130B00881FC2F70EC0BA0F621F731F841F48F4F8
S1130B10879577956795B795F7959E3F08F0B3CF7E
S1130B209395880F08F09927EE0F97958795089568
S1130B30EBD0E39521C10CD00EC1DED040F0D5D06E
S1130B4030F021F45F3F19F0C7C0511149C1CAC048
S1130B5024D198F39923C9F35523B1F3951B550B6D
S1130B60BB27AA2762177307840738F09F5F5F4F7C
S1130B70220F331F441FAA1FA9F333D00E2E3AF0BD
S1130B80E0E830D091505040E695001CCAF729D0D7
S1130B90FE2F27D0660F771F881FBB1F2617370726
S1130BA04807AB07B0E809F0BB0B802DBF01FF2756
S1130BB093585F4F2AF09E3F510568F08DC010C1D5
S1130BC05F3FECF3983EDCF3869577956795B79590
S1130BD0F7959F5FC9F7880F911D9695879597F9AB
S1130BE00895E1E0660F771F881FBB1F6217730724
S1130BF08407BA0720F0621B730B840BBA0BEE1F39
S1130C0088F7E0950895D1D088F09F5790F0B92FD8
S1130C109927B751A0F0D1F0660F771F881F991F4D
S1130C201AF0BA95C9F712C0B13081F0D8D0B1E04A
S1130C300895D5C0672F782F8827B85F39F0B93F5A
S1130C40CCF3869577956795B395D9F73EF490954F
S1130C508095709561957F4F8F4F9F4F0895E894CD
S1130C6009C097FB3EF490958095709561957F4FF0
S1130C708F4F9F4F9923A9F0F92F96E9BB2793959E
S1130C80F695879577956795B795F111F8CFFAF4AE
S1130C90BB0F11F460FF1BC06F5F7F4F8F4F9F4FDF
S1130CA016C0882311F096E911C0772321F09EE83D
S1130CB0872F762F05C0662371F096E8862F70E0A3
S1130CC060E02AF09A95660F771F881FDAF7880F7D
S1130CD09695879597F9089597F99F6780E870E04E
S1130CE060E008959FEF80EC089500240A9416169E
S1130CF0170618060906089500240A941216130606
S1130D00140605060895EECF50D0E8F3E894E0E029
S1130D10BB279F57F0F02AED3FE049EC06C0EE0FE9
S1130D20BB0F661F771F881F28F0B23A620773074C
S1130D30840728F0B25A620B730B840BE3959A95DF
S1130D4072F7803830F49A95BB0F661F771F881F9F
S1130D50D2F79048B6C0092E0394000C11F48823EE
S1130D6052F0BB0F40F4BF2B11F460FF04C06F5F5F
S1130D707F4F8F4F9F4F0895EF93E0FF06C0A2EA85
S1130D802AED3FE049EC5FEB80DEE5DF0F90039452
S1130D9001FC9058E4E9F0E0A0C057FD9058440FDE
S1130DA0551F59F05F3F71F04795880F97FB991FC6
S1130DB061F09F3F79F08795089512161306140683
S1130DC0551FF2CF4695F1DF08C016161706180610
S1130DD0991FF1CF86957105610508940895E894EB
S1130DE0BB2766277727CB0197F908950BD0B3CF9C
S1130DF07CDF28F081DF18F0952309F06DCF72CFE6
S1130E001124EECFCADFA0F3959FD1F3950F50E0E4
S1130E10551F629FF001729FBB27F00DB11D639FA8
S1130E20AA27F00DB11DAA1F649F6627B00DA11D4E
S1130E30661F829F2227B00DA11D621F739FB00DF4
S1130E40A11D621F839FA00D611D221F749F332764
S1130E50A00D611D231F849F600D211D822F762FFD
S1130E606A2F11249F5750408AF0E1F088234AF0FA
S1130E70EE0FFF1FBB1F661F771F881F9150504046
S1130E80A9F79E3F510570F027CFAACF5F3FECF33F
S1130E90983EDCF3869577956795B795F795E79532
S1130EA09F5FC1F7FE2B880F911D9695879597F943
S1130EB008959F9329DF0F9007FCEE5F5DCF9F3F5E
S1130EC031F0915020F4879577956795B795880F01
S1130ED0911D9695879597F908959F938F937F9386
S1130EE06F93FF93EF939B01AC0180DFEF91FF9130
S1130EF005D02F913F914F915F9178CFDF93CF939E
S1130F001F930F93FF92EF92DF927B018C01689401
S1130F1005C0DA2EEF0176DFFE01E894A591259154
S1130F20359145915591AEF3EF01AFDDFE01970187
S1130F30A801DA9479F7DF90EF90FF900F911F9159
S1130F40CF91DF910895DB018F939F933CD0BF91A4
S1130F50AF91A29F800D911DA39F900DB29F900D04
S1130F6011240895A1E21A2EAA1BBB1BFD010DC07A
S1130F70AA1FBB1FEE1FFF1FA217B307E407F50745
S1130F8020F0A21BB30BE40BF50B661F771F881F21
S1130F90991F1A9469F760957095809590959B01B7
S1130FA0AC01BD01CF010895A29FB001B39FC00160
S1130FB0A39F700D811D1124911DB29F700D811D81
S1130FC01124911D0895F0DFA59F900DB49F900DFD
S1130FD0A49F800D911D112408950F931F93CF9307
S1130FE0DF93CDB7DEB72E970FB6F894DEBF0FBEF2
S1130FF0CDBF0D891E8986E08C831A8309838FEF08
S11310009FE79E838D83AE01475E5F4F6F89788D26
S1131010CE01019610D0EF81F885E00FF11F108208
S11310202E960FB6F894DEBF0FBECDBFDF91CF91E1
S11310301F910F9108952F923F924F925F926F925A
S11310407F928F929F92AF92BF92CF92DF92EF9254
S1131050FF920F931F93CF93DF93CDB7DEB72B97F8
S11310600FB6F894DEBF0FBECDBF6C017B018A01C1
S1131070FC0117821682838181FFBFC1CE010196D4
S11310803C01F6019381F70193FD859193FF8191D2
S11310907F01882309F4ADC1853239F493FD85912C
S11310A093FF81917F01853221F4B60190E0D6D17E
S11310B0E8CF912C212C312CFFE1F315D8F08B32A1
S11310C079F038F4803279F08332A1F4232D206151
S11310D01DC08D3261F0803369F4232D216016C068
S11310E0832D8260382EE32DE4603E2E2AC0F32D3A
S11310F0F8601DC037FC2DC020ED280F2A3040F0C9
S11311008E32B9F436FC75C1232D2064322E19C0F9
S113111036FE06C08AE0989E200D1124922E11C03E
S1131120EAE02E9E200D1124222EF32DF0623F2E94
S113113008C08C3621F4832D8068382E02C088368E
S113114041F4F70193FD859193FF81917F01811112
S1131150B3CF982F9F7D9554933028F40C5F1F4F85
S11311609FE399830DC0833631F0833771F0833563
S113117009F055C020C0F801808189830E5F1F4F9C
S113118088248394912C530112C02801F2E04F0E5D
S1131190511CF801A080B18036FE03C0692D70E0B7
S11311A002C06FEF7FEFC5014ED14C018201F32DD8
S11311B0FF773F2E15C0280122E0420E511CF80192
S11311C0A080B18036FE03C0692D70E002C06FEFCD
S11311D07FEFC5012DD14C01F32DF0683F2E820124
S11311E033FC19C0822D90E088169906A0F4B6014C
S11311F080E290E033D12A94F5CFF50137FC859154
S113120037FE81915F01B60190E028D121102A9424
S113121021E0821A91088114910479F7E1C084369F
S113122011F0893639F5F80137FE07C06081718104
S1131230828193810C5F1F4F08C060817181072EEA
S1131240000C880B990B0E5F1F4FF32DFF763F2E7A
S113125097FF09C090958095709561957F4F8F4F4A
S11312609F4FF0683F2E2AE030E0A30133D1882E4F
S1131270861844C0853731F4232D2F7EB22E2AE000
S113128030E025C0932D997FB92E8F36C1F018F424
S1131290883579F0AEC0803719F0883721F0A9C0BD
S11312A0E92FE061BE2EB4FE0DC0FB2DF460BF2E0D
S11312B009C034FE0AC0292F2660B22E06C028E0D9
S11312C030E005C020E130E002C020E132E0F80166
S11312D0B7FE07C060817181828193810C5F1F4FCB
S11312E006C06081718180E090E00E5F1F4FA30112
S11312F0F1D0882E8618FB2DFF773F2E36FE0DC0C9
S1131300232D2E7FA22E891458F434FE0BC032FCF8
S113131009C0832D8E7EA82E05C0B82CA32C03C033
S1131320B82C01C0B92CA4FE0FC0FE01E80DF11DBC
S11313308081803321F49A2D997EA92E09C0A2FEC2
S113134006C0B394B39404C08A2D867809F0B3948C
S1131350A3FC10C0A0FE06C0B21480F4280C922C8A
S11313609B180DC0B21458F4B60180E290E076D018
S1131370B394F8CFB21418F42B1802C0982C212C73
S1131380A4FE0FC0B60180E390E068D0A2FE16C0B0
S1131390A1FC03C088E790E002C088E590E0B601B4
S11313A00CC08A2D867851F0A1FE02C08BE201C0E8
S11313B080E2A7FC8DE2B60190E050D0891430F4AD
S11313C0B60180E390E04AD09A94F8CF8A94F3016E
S11313D0E80DF11D8081B60190E040D08110F6CF78
S11313E0222009F44ECEB60180E290E037D02A9450
S11313F0F7CFF6018681978102C08FEF9FEF2B967E
S11314000FB6F894DEBF0FBECDBFDF91CF911F9111
S11314100F91FF90EF90DF90CF90BF90AF909F908F
S11314208F907F906F905F904F903F902F90089592
S1131430FC010590615070400110D8F7809590959B
S11314408E0F9F1F0895FC016150704001900110A0
S1131450D8F7809590958E0F9F1F08950F931F9333
S1131460CF93DF93FB01238121FD03C08FEF9FEF17
S11314702CC022FF16C04681578124813581421732
S1131480530744F4A081B1819D012F5F3F4F318305
S113149020838C93268137812F5F3F4F37832683A8
S11314A014C08B01EC01FB010084F185E02D09954A
S11314B0892BE1F6D80116968D919C911797019688
S11314C017969C938E931697CE01DF91CF911F911F
S11314D00F910895FA01AA27283051F1203181F1A2
S11314E0E8946F936E7F6E5F7F4F8F4F9F4FAF4F28
S11314F0B1E03ED0B4E03CD0670F781F891F9A1F3B
S1131500A11D680F791F8A1F911DA11D6A0F711DEE
S1131510811D911DA11D20D009F468943F912AE0FA
S1131520269F11243019305D3193DEF6CF010895E2
S1131530462F4770405D4193B3E00FD0C9F7F6CF13
S1131540462F4F70405D4A3318F0495D31FD4052DB
S1131550419302D0A9F7EACFB4E0A6959795879571
S113156077956795BA95C9F7009761057105089550
S11315709B01AC010A2E06945795479537952795FC
S1131580BA95C9F7620F731F841F951FA01D089594
S1071590F894FFCFF9
S11315942506000032706F733A2533642C253364B6
S10D15A40070737A693A253364007D
S9030000FC
