S00C0000466564322E73726563D7
S113000049C000003EC6000063C0000061C000009B
S11300105FC000005DC000005BC0000059C000006C
S113002057C0000055C0000053C0000051C000007C
S11300304FC000004DC000004BC0000049C000008C
S1130040B0C5000045C0000034C6000041C0000037
S11300503FC000003DC000003BC0000039C00000AC
S113006037C0000035C0000033C0000031C00000BC
S11300702FC000002DC000002BC0000029C00000CC
S113008027C0000025C0000023C0000021C00000DC
S11300901FC0000011241FBECFEFD0E1DEBFCDBFD3
S11300A011E0A0E0B1E0E8EBF7E100E00BBF02C033
S11300B007900D92A032B107D9F721E0A0E2B1E098
S11300C001C01D92AF37B207E1F7F8D30C94DA0BF5
S11300D097CF82E08093D80090E29093DB0098E081
S11300E09093DE008093E20084E08093E30083E158
S11300F08093E40080E020C0982F9295907F9093A5
S1130100ED001092EE001092EF001092F0001092A9
S1130110F1001092F2001092F3001092F400109289
S1130120F5001092F6001092F7001092F900109268
S1130130F8001092FA008F5F8F30F0F2EBEDF0E0F0
S113014080818068808308950F938295807F809357
S1130150ED001092EE008FEF8093F4008093F50091
S11301608093F6008093F700222359F1842F880F9F
S1130170880F880F8093F000DB01CA01689414F89B
S1130180B695A795979587951694D1F78093F10026
S1130190DB01CA01072E7DE0B695A7959795879553
S11301A07A95D1F7702D8093F200032E35E1769580
S11301B06795579547953A95D1F7302D4093F300BD
S11301C010C0842F8295880F807E8093F2006894FB
S11301D012F876956795579547951694D1F74093FD
S11301E0F30080E1289F90011124202B20682093A4
S11301F0EF000F910895EF92FF920F938295807F05
S11302008093ED001092EE00222359F1842F880F81
S1130210880F880F8093F000DB01CA01689414F8FA
S1130220B695A795979587951694D1F78093F10085
S1130230DB01CA01072E7DE0B695A79597958795B2
S11302407A95D1F7702D8093F200032E35E17695DF
S11302506795579547953A95D1F7302D4093F3001C
S113026010C0842F8295880F807E8093F20068945A
S113027012F876956795579547951694D1F740935C
S1130280F300EFEEF0E0808190E1299F90011124CA
S1130290282B208380E007C0F701E80FF11D90812F
S11302A09093FA008F5F8017B8F300640093EF0017
S11302B00F91FF90EF9008958F929F92AF92BF920B
S11302C0CF92DF92EF92FF924B015C0169017A01B8
S11302D020E030E0A901C701B601CCD5811103C0EB
S11302E080E090E002C081E090E0019731F4A50144
S11302F09401C701B60111D705C0A5019401C70136
S1130300B6010BD7FF90EF90DF90CF90BF90AF90E6
S11303109F908F9008954F925F926F927F928F92E9
S11303209F92AF92BF92CF92DF92EF92FF92CF93C0
S1130330DF93CDB7DEB728970FB6F894DEBF0FBEB4
S1130340CDBF69837A838B839C832D833E834F83C4
S11303505887C0903801D0903901E0903A01F0906C
S11303603B0120EB3AE549E95CE3C701B601D5D688
S11303709B01AC01C701B601D0D62B013C016091B1
S1130380040170910501072E000C880B990B11D6FE
S11303904B015C019B01AC01C301B2016FD52B0180
S11303A03C01A501940160E070E48CE196E466D51B
S11303B04B015C0129813A814B815C81AED69B0162
S11303C0AC01C301B201F2D42B013C012D813E8169
S11303D04F815885C501B401A0D69B01AC01C3016E
S11303E0B201E3D4609334017093350180933601F4
S11303F09093370120914401309145014091460189
S113040050914701D3D44B015C0160934401709334
S11304104501809346019093470120E030E048E491
S113042052E4C701B60175D618166CF480E090E06A
S1130430A8E4B2E48093380190933901A0933A017F
S1130440B0933B0113C06091000170910101809150
S1130450020190910301A50194012EDF60933801FC
S11304607093390180933A0190933B016091380174
S11304707091390180913A0190913B0128960FB611
S1130480F894DEBF0FBECDBFDF91CF91FF90EF9008
S1130490DF90CF90BF90AF909F908F907F906F90A0
S11304A05F904F9008954F925F926F927F928F92D8
S11304B09F92AF92BF92CF92DF92EF92FF92CF932F
S11304C0DF93CDB7DEB72C970FB6F894DEBF0FBE1F
S11304D0CDBF6D837E838F839887C0903801D09081
S11304E03901E0903A01F0903B0120E030E0A901AD
S11304F0C701B601BFD4882351F020E030E0A90140
S11305006D817E818F819885B5D4811111C010923F
S113051028011092290110922A0110922B011092A5
S11305202001109221011092220110922301ADC0EA
S113053020E030E943E355E4C701B601EED54B01B1
S11305405C019B01AC0167E676EA87E697EC96D4FA
S113055040902C0150902D0160902E0170902F013D
S1130560A3019201DAD569837A838B839C83A501E5
S1130570940160E070E080EF95E480D480902401E1
S113058090902501A0902601B0902701A501940127
S1130590C4D59B01AC0169817A818B819C8106D48D
S11305A069837A838B839C8323E338E044EC50E4AF
S11305B06D817E818F819885B0D59B01AC01698165
S11305C07A818B819C81F2D36093280170932901F5
S11305D080932A0190932B0160910401709105018D
S11305E0072E000C880B990BE4D469837A838B83E0
S11305F09C839B01AC01C701B6018FD569877A87BB
S11306008B879C879B01AC0160E070E080EF95E4F0
S113061035D4A7019601C9D39B01AC01C301B20132
S11306207CD56B017C0129853A854B855C8560E02E
S113063070E08AEF96EC22D49B01AC01C501B401B1
S11306406CD59B01AC01C701B601B0D34B015C0171
S113065029813A814B815C8160E070E08AE796E40D
S11306600DD49B01AC016D817E818F81988555D518
S11306709B01AC01C501B40199D36093200170932F
S1130680210180932201909323012091280130912C
S1130690290140912A0150912B01609140017091F0
S11306A04101809142019091430180D32B013C018F
S11306B06093400170934101809342019093430100
S11306C02091200130912101409122015091230178
S11306D060913C0170913D0180913E0190913F01F8
S11306E065D34B015C0160933C0170933D018093A1
S11306F03E0190933F01C0900001D0900101E09031
S11307000201F0900301A3019201C701B601D4DDF7
S113071060932C0170932D0180932E0190932F01EF
S1130720A5019401C701B601C7DD6093240170934C
S1130730250180932601909327012C960FB6F894F7
S1130740DEBF0FBECDBFDF91CF91FF90EF90DF9062
S1130750CF90BF90AF909F908F907F906F905F905D
S11307604F90089560915C0170915D0180915E01EC
S113077090915F0108956091600170916101809191
S1130780620190916301089560913001709131018B
S11307908091320190913301089588B1886088B9BD
S11307A082E08A95F1F700C088B1877F88B90895FF
S11307B0CF93DF932FE788E391E02150804090406E
S11307C0E1F700C0000080E388B9E7DF2AE62A9554
S11307D0F1F700C0D0E2D8B9E0DFC0E8C8B9DDDF86
S11307E08AE68A95F1F700C0D8B9D7DFC8B9D5DF52
S11307F09AE69A95F1F700C018B8CFDF80EF88B970
S1130800CCDF2AE62A95F1F700C018B8C6DF80E1EC
S113081088B9C3DF8FE99FE00197F1F700C00000BA
S113082018B8BBDF80E688B9B8DF8FE19EE4019792
S1130830F1F700C00000DF91CF910895CF93C82F46
S11308402AE62A95F1F700C0807F846088B9A5DF85
S113085020E1C29FC0011124846088B99EDFCF913A
S11308600895CF938736A0F4C82FC0682AE62A9546
S1130870F1F700C0807F806888B98FDF20E1C29FD4
S1130880C001112488B989DF8AE68A95F1F700C08E
S1130890CF910895CF93DF93EC0102C02196CEDF70
S11308A088818111FBCFDF91CF9108958FEF81B9BA
S11308B012B880BB8CEF87B918B80895CF93DF9333
S11308C0CDB7DEB7E2970FB6F894DEBF0FBECDBF4B
S11308D0EDDF4BD26DDF51D283E390E054D2F9DBEC
S11308E0409106015091070160910801709109013E
S11308F005E02091540183E027DC789480915B012A
S1130900813009F0EBC080915301882309F44BC076
S113091006E711E0F8018081618170E0762F662797
S1130920682B072E000C880B990B43D32AE037ED74
S113093043E25DE3F2D3609370017093710180939D
S1130940720190937301F80132812381822F8370A5
S113095090E0982F8827832B90936D0180936C01EE
S1130960922F969596958481282F2F70F0E42F9FCF
S113097090011124292B3093750120937401282FA1
S1130980207130E035952795359527953595279530
S11309903595279520936F0182958695877080936E
S11309A07E0110925301DEDED1D270935201609326
S11309B05101E1DECBD27093500160934F016091FD
S11309C074017091750180E090E0F1D26B017C01BB
S11309D060916C0170916D0180E090E0E8D2A70114
S11309E0960199DCB8D270934E0160934D0125E3D2
S11309F03AEF4EE85CE3609170017091710180916F
S1130A0072019091730189D34EDDA0D270934C0191
S1130A1060934B01B9DE9AD270934A016093490105
S1130A2020915101E0915201298320914F0130918D
S1130A305001A90142955295507F5427407F542775
S1130A404E2B4A83359527953595279535952795CA
S1130A50359527952B8320914D0140914E012C8390
S1130A6020914B0130914C01522F5295507F452BD0
S1130A704D83359527953595279535952795359546
S1130A802795AB01002456954795079456954795AD
S1130A900794542F402D242B2E839B0135952795A5
S1130AA0359527952F83972F959595958091480196
S1130AB040E4849F90011124292B28878F5F809321
S1130AC04801CE0101967C0108E020E042E250E0BA
S1130AD060E070E082E08FDB10925B01809159014D
S1130AE0813091F5809150018F9380914F018F93C4
S1130AF0809152018F93809151018F938AE091E00C
S1130B009F938F938E010F5F1F4F1F930F9377D384
S1130B1080E0A7DEC801BEDE80914A018F938091F8
S1130B2049018F9386E191E09F938F931F930F93D5
S1130B3066D388E296DEC801ADDE109259010FB685
S1130B40F894DEBF0FBECDBF80915A018130E9F425
S1130B5080EF24D1D0905201E0904F01F0905001E9
S1130B600091490110914A018091510117D18D2DB5
S1130B7015D18E2D13D18F2D11D1802F0FD1812F0F
S1130B800DD18FEF0BD110925A0180915801813011
S1130B9009F0B4CE91B388E0892781BB1092580143
S1130BA0ADCE1F920F920FB60F9211242F933F9345
S1130BB04F935F936F937F938F939F93AF93BF9361
S1130BC040915601509157014F5F5F4F5093570129
S1130BD04093560181E080935B019A01ADECBCEC3B
S1130BE0FFD29695879596958795969587959C01BE
S1130BF0220F331F880F991F880F991F880F991F81
S1130C00820F931F4817590719F481E080935A0102
S1130C109A0136952795ABE7B4E1E2D2969587958C
S1130C2062E3689F9001699F300D112442175307B6
S1130C3019F481E0809359019A01369527953695E8
S1130C402795ABE7B4E1CCD29695879564E6689F87
S1130C509001699F300D11244217530719F481E064
S1130C6080935801BF91AF919F918F917F916F9124
S1130C705F914F913F912F910F900FBE0F901F9056
S1130C8018951F920F920FB60F9211248F939F9372
S1130C9080915501803531F492B182E0892782B97F
S1130CA0109255019F918F910F900FBE0F901F903E
S1130CB018951F920F920FB60F9211240BB60F9234
S1130CC00F932F933F934F935F936F937F938F93E0
S1130CD09F93AF93BF93CF93EF93FF9380E380935E
S1130CE0ED008091EE0085FF22C0C091EF00CF702F
S1130CF080E008C0E82FF0E09091FA00EA58FE4F37
S1130D0090838F5F8C17B0F3EEEEF0E080818F7DDF
S1130D108083409106015091070160910801709110
S1130D20090105E02091540183E00EDA01C0C0E01E
S1130D30C0936E0181E08093530182B1805882B9DF
S1130D40FF91EF91CF91BF91AF919F918F917F913F
S1130D506F915F914F913F912F910F910F900BBE27
S1130D600F900FBE0F901F9018958DE084BD8DE4F9
S1130D7087BD82E080936E00089582E080936900CD
S1130D8081E08DBB08959093C5008093C4008EE0EC
S1130D908093C20088E18093C10008959091C000BF
S1130DA095FFFCCF8093C60008955058BB27AA270F
S1130DB00ED075C166D130F06BD120F031F49F3F75
S1130DC011F41EF45BC10EF4E095E7FB51C1E92F69
S1130DD077D180F3BA17620773078407950718F071
S1130DE071F49EF58FC10EF4E0950B2EBA2FA02D51
S1130DF00B01B90190010C01CA01A0011124FF27C4
S1130E00591B99F0593F50F4503E68F11A16F040BE
S1130E10A22F232F342F4427585FF3CF46953795BD
S1130E202795A795F0405395C9F77EF41F16BA0B82
S1130E30620B730B840BBAF09150A1F0FF0FBB1F30
S1130E40661F771F881FC2F70EC0BA0F621F731F79
S1130E50841F48F4879577956795B795F7959E3FD6
S1130E6008F0B3CF9395880F08F09927EE0F979564
S1130E7087950895D9D008F481E008950CD00FC166
S1130E8007D140F0FED030F021F45F3F19F0F0C0FC
S1130E90511139C1F3C014D198F39923C9F35523DF
S1130EA0B1F3951B550BBB27AA2762177307840759
S1130EB038F09F5F5F4F220F331F441FAA1FA9F30F
S1130EC033D00E2E3AF0E0E830D091505040E69501
S1130ED0001CCAF729D0FE2F27D0660F771F881F62
S1130EE0BB1F261737074807AB07B0E809F0BB0B51
S1130EF0802DBF01FF2793585F4F2AF09E3F510575
S1130F0068F0B6C000C15F3FECF3983EDCF3869511
S1130F1077956795B795F7959F5FC9F7880F911DEA
S1130F209695879597F90895E1E0660F771F881FD6
S1130F30BB1F621773078407BA0720F0621B730B89
S1130F40840BBA0BEE1F88F7E095089504D06894DB
S1130F50B111D9C00895BCD088F09F5790F0B92F33
S1130F609927B751A0F0D1F0660F771F881F991FFA
S1130F701AF0BA95C9F712C0B13081F0C3D0B1E00C
S1130F800895C0C0672F782F8827B85F39F0B93F1C
S1130F90CCF3869577956795B395D9F73EF49095FC
S1130FA08095709561957F4F8F4F9F4F0895E8947A
S1130FB009C097FB3EF490958095709561957F4F9D
S1130FC08F4F9F4F9923A9F0F92F96E9BB2793954B
S1130FD0F695879577956795B795F111F8CFFAF45B
S1130FE0BB0F11F460FF1BC06F5F7F4F8F4F9F4F8C
S1130FF016C0882311F096E911C0772321F09EE8EA
S1131000872F762F05C0662371F096E8862F70E04F
S113101060E02AF09A95660F771F881FDAF7880F29
S11310209695879597F90895990F0008550FAA0B7F
S1131030E0E8FEEF16161706E807F907C0F01216E7
S11310401306E407F50798F0621B730B840B950BEA
S113105039F40A2661F0232B242B252B21F408953F
S11310600A2609F4A140A6958FEF811D811D0895DC
S113107097F99F6780E870E060E008959FEF80EC47
S1131080089500240A9416161706180609060895EA
S113109000240A9412161306140605060895092E50
S11310A00394000C11F4882352F0BB0F40F4BF2BBF
S11310B011F460FF04C06F5F7F4F8F4F9F4F0895FF
S11310C057FD9058440F551F59F05F3F71F04795F5
S11310D0880F97FB991F61F09F3F79F087950895DA
S11310E0121613061406551FF2CF4695F1DF08C0F9
S11310F0161617061806991FF1CF86957105610516
S113110008940895E894BB2766277727CB0197F9BD
S113111008958ADF08F48FEF08950BD0C0CFB1DFB4
S113112028F0B6DF18F0952309F0A2CFA7CF112439
S1131130EACFC6DFA0F3959FD1F3950F50E0551F7A
S1131140629FF001729FBB27F00DB11D639FAA2718
S1131150F00DB11DAA1F649F6627B00DA11D661F67
S1131160829F2227B00DA11D621F739FB00DA11D88
S1131170621F839FA00D611D221F749F3327A00D42
S1131180611D231F849F600D211D822F762F6A2FDE
S113119011249F5750408AF0E1F088234AF0EE0F63
S11311A0FF1FBB1F661F771F881F91505040A9F770
S11311B09E3F510570F05CCFA6CF5F3FECF3983EA5
S11311C0DCF3869577956795B795F795E7959F5FD7
S11311D0C1F7FE2B880F911D9695879597F9089571
S11311E0A29FB001B39FC001A39F700D811D112464
S11311F0911DB29F700D811D1124911D08950F93AF
S11312001F93CF93DF93CDB7DEB72E970FB6F89425
S1131210DEBF0FBECDBF0D891E8986E08C831A8385
S113122009838FEF9FE79E838D83AE01475E5F4FF7
S11312306F89788DCE01019610D0EF81F885E00F8B
S1131240F11F10822E960FB6F894DEBF0FBECDBFED
S1131250DF91CF911F910F9108952F923F924F925A
S11312605F926F927F928F929F92AF92BF92CF9232
S1131270DF92EF92FF920F931F93CF93DF93CDB73B
S1131280DEB72B970FB6F894DEBF0FBECDBF6C014F
S11312907B018A01FC0117821682838181FFBFC111
S11312A0CE0101963C01F6019381F70193FD8591EE
S11312B093FF81917F01882309F4ADC1853239F40C
S11312C093FD859193FF81917F01853221F4B601CD
S11312D090E0D6D1E8CF912C212C312CFFE1F315ED
S11312E0D8F08B3279F038F4803279F08332A1F47B
S11312F0232D20611DC08D3261F0803369F4232DCC
S1131300216016C0832D8260382EE32DE4603E2ECA
S11313102AC0F32DF8601DC037FC2DC020ED280F26
S11313202A3040F08E32B9F436FC75C1232D206486
S1131330322E19C036FE06C08AE0989E200D112474
S1131340922E11C0EAE02E9E200D1124222EF32DA0
S1131350F0623F2E08C08C3621F4832D8068382E2D
S113136002C0883641F4F70193FD859193FF819182
S11313707F018111B3CF982F9F7D9554933028F42A
S11313800C5F1F4F9FE399830DC0833631F0833781
S113139071F0833509F055C020C0F801808189833C
S11313A00E5F1F4F88248394912C530112C028018F
S11313B0F2E04F0E511CF801A080B18036FE03C04C
S11313C0692D70E002C06FEF7FEFC5014ED14C0173
S11313D08201F32DFF773F2E15C0280122E0420E33
S11313E0511CF801A080B18036FE03C0692D70E065
S11313F002C06FEF7FEFC5012DD14C01F32DF068D2
S11314003F2E820133FC19C0822D90E08816990684
S1131410A0F4B60180E290E033D12A94F5CFF5012F
S113142037FC859137FE81915F01B60190E028D1A8
S113143021102A9421E0821A91088114910479F7E9
S1131440E1C0843611F0893639F5F80137FE07C05A
S113145060817181828193810C5F1F4F08C060811C
S11314607181072E000C880B990B0E5F1F4FF32D13
S1131470FF763F2E97FF09C09095809570956195F2
S11314807F4F8F4F9F4FF0683F2E2AE030E0A3013B
S113149033D1882E861844C0853731F4232D2F7E0E
S11314A0B22E2AE030E025C0932D997FB92E8F36D5
S11314B0C1F018F4883579F0AEC0803719F0883758
S11314C021F0A9C0E92FE061BE2EB4FE0DC0FB2DB2
S11314D0F460BF2E09C034FE0AC0292F2660B22E44
S11314E006C028E030E005C020E130E002C020E181
S11314F032E0F801B7FE07C0608171818281938177
S11315000C5F1F4F06C06081718180E090E00E5F28
S11315101F4FA301F1D0882E8618FB2DFF773F2E95
S113152036FE0DC0232D2E7FA22E891458F434FECE
S11315300BC032FC09C0832D8E7EA82E05C0B82CAA
S1131540A32C03C0B82C01C0B92CA4FE0FC0FE010B
S1131550E80DF11D8081803321F49A2D997EA92E06
S113156009C0A2FE06C0B394B39404C08A2D867841
S113157009F0B394A3FC10C0A0FE06C0B21480F41A
S1131580280C922C9B180DC0B21458F4B60180E2BA
S113159090E076D0B394F8CFB21418F42B1802C0AC
S11315A0982C212CA4FE0FC0B60180E390E068D0F3
S11315B0A2FE16C0A1FC03C088E790E002C088E543
S11315C090E0B6010CC08A2D867851F0A1FE02C0CD
S11315D08BE201C080E2A7FC8DE2B60190E050D01E
S11315E0891430F4B60180E390E04AD09A94F8CF9D
S11315F08A94F301E80DF11D8081B60190E040D09A
S11316008110F6CF222009F44ECEB60180E290E09C
S113161037D02A94F7CFF6018681978102C08FEFE5
S11316209FEF2B960FB6F894DEBF0FBECDBFDF91B0
S1131630CF911F910F91FF90EF90DF90CF90BF90CB
S1131640AF909F908F907F906F905F904F903F905E
S11316502F900895FC010590615070400110D8F757
S1131660809590958E0F9F1F0895FC0161507040E6
S113167001900110D8F7809590958E0F9F1F0895C3
S11316800F931F93CF93DF93FB01238121FD03C0AD
S11316908FEF9FEF2CC022FF16C046815781248113
S11316A035814217530744F4A081B1819D012F5F16
S11316B03F4F318320838C93268137812F5F3F4FA7
S11316C03783268314C08B01EC01FB010084F18570
S11316D0E02D0995892BE1F6D80116968D919C9100
S11316E01797019617969C938E931697CE01DF91C8
S11316F0CF911F910F910895FA01AA27283051F133
S1131700203181F1E8946F936E7F6E5F7F4F8F4F2E
S11317109F4FAF4FB1E03ED0B4E03CD0670F781F8D
S1131720891F9A1FA11D680F791F8A1F911DA11D72
S11317306A0F711D811D911DA11D20D009F46894AB
S11317403F912AE0269F11243019305D3193DEF653
S1131750CF010895462F4770405D4193B3E00FD009
S1131760C9F7F6CF462F4F70405D4A3318F0495DF4
S113177031FD4052419302D0A9F7EACFB4E0A695D7
S11317809795879577956795BA95C9F700976105F9
S1131790710508959B01AC010A2E0694579547954F
S11317A037952795BA95C9F7620F731F841F951F44
S10B17B0A01D0895F894FFCF79
S11317B80000003F250611000000706F733A2535BC
S11317C8642C2535640070737A693A253464000002
S9030000FC
